{
  "contractName": "Rating",
  "abi": [
    {
      "constant": true,
      "inputs": [
        {
          "name": "",
          "type": "uint256"
        }
      ],
      "name": "moviesList",
      "outputs": [
        {
          "name": "",
          "type": "string"
        }
      ],
      "payable": false,
      "stateMutability": "view",
      "type": "function"
    },
    {
      "inputs": [
        {
          "name": "_moviesList",
          "type": "string[]"
        }
      ],
      "payable": false,
      "stateMutability": "nonpayable",
      "type": "constructor"
    },
    {
      "constant": false,
      "inputs": [
        {
          "name": "movieName",
          "type": "string"
        }
      ],
      "name": "addNewMovie",
      "outputs": [],
      "payable": false,
      "stateMutability": "nonpayable",
      "type": "function"
    },
    {
      "constant": true,
      "inputs": [
        {
          "name": "movieName",
          "type": "string"
        }
      ],
      "name": "getTotalVotes",
      "outputs": [
        {
          "name": "",
          "type": "uint8"
        }
      ],
      "payable": false,
      "stateMutability": "view",
      "type": "function"
    },
    {
      "constant": false,
      "inputs": [
        {
          "name": "movieName",
          "type": "string"
        }
      ],
      "name": "vote",
      "outputs": [],
      "payable": false,
      "stateMutability": "nonpayable",
      "type": "function"
    }
  ],
  "bytecode": "0x60806040523480156200001157600080fd5b5060405162000a8438038062000a848339810180604052620000379190810190620002c3565b80600090805190602001906200004f92919062000057565b5050620003c2565b828054828255906000526020600020908101928215620000ab579160200282015b82811115620000aa57825182908051906020019062000099929190620000be565b509160200191906001019062000078565b5b509050620000ba919062000145565b5090565b828054600181600116156101000203166002900490600052602060002090601f016020900481019282601f106200010157805160ff191683800117855562000132565b8280016001018555821562000132579182015b828111156200013157825182559160200191906001019062000114565b5b50905062000141919062000176565b5090565b6200017391905b808211156200016f57600081816200016591906200019e565b506001016200014c565b5090565b90565b6200019b91905b80821115620001975760008160009055506001016200017d565b5090565b90565b50805460018160011615610100020316600290046000825580601f10620001c65750620001e7565b601f016020900490600052602060002090810190620001e6919062000176565b5b50565b600082601f830112620001fc57600080fd5b8151620002136200020d8262000336565b62000308565b9150818183526020840193506020810190508360005b838110156200025d578151860162000242888262000267565b84526020840193506020830192505060018101905062000229565b5050505092915050565b600082601f8301126200027957600080fd5b8151620002906200028a826200035f565b62000308565b91508082526020830160208301858383011115620002ad57600080fd5b620002ba8382846200038c565b50505092915050565b600060208284031215620002d657600080fd5b600082015167ffffffffffffffff811115620002f157600080fd5b620002ff84828501620001ea565b91505092915050565b6000604051905081810181811067ffffffffffffffff821117156200032c57600080fd5b8060405250919050565b600067ffffffffffffffff8211156200034e57600080fd5b602082029050602081019050919050565b600067ffffffffffffffff8211156200037757600080fd5b601f19601f8301169050602081019050919050565b60005b83811015620003ac5780820151818401526020810190506200038f565b83811115620003bc576000848401525b50505050565b6106b280620003d26000396000f3fe608060405234801561001057600080fd5b506004361061004c5760003560e01c806332e4cc57146100515780638cc975631461006d57806398d16f751461009d578063fc36e15b146100cd575b600080fd5b61006b60048036036100669190810190610433565b6100e9565b005b61008760048036036100829190810190610474565b6101c6565b6040516100949190610525565b60405180910390f35b6100b760048036036100b29190810190610433565b61027f565b6040516100c49190610567565b60405180910390f35b6100e760048036036100e29190810190610433565b6102b1565b005b60006100f4826102fa565b90506002600082815260200190815260200160002060009054906101000a900460ff1615610157576040517f08c379a000000000000000000000000000000000000000000000000000000000815260040161014e90610547565b60405180910390fd5b6000829080600181540180825580915050906001820390600052602060002001600090919290919091509080519060200190610194929190610325565b505060016002600083815260200190815260200160002060006101000a81548160ff0219169083151502179055505050565b600081815481106101d357fe5b906000526020600020016000915090508054600181600116156101000203166002900480601f0160208091040260200160405190810160405280929190818152602001828054600181600116156101000203166002900480156102775780601f1061024c57610100808354040283529160200191610277565b820191906000526020600020905b81548152906001019060200180831161025a57829003601f168201915b505050505081565b60006001600061028e846102fa565b815260200190815260200160002060009054906101000a900460ff169050919050565b60018060006102bf846102fa565b815260200190815260200160002060008282829054906101000a900460ff160192506101000a81548160ff021916908360ff16021790555050565b60006060829050600081511415610317576000801b915050610320565b60208301519150505b919050565b828054600181600116156101000203166002900490600052602060002090601f016020900481019282601f1061036657805160ff1916838001178555610394565b82800160010185558215610394579182015b82811115610393578251825591602001919060010190610378565b5b5090506103a191906103a5565b5090565b6103c791905b808211156103c35760008160009055506001016103ab565b5090565b90565b600082601f8301126103db57600080fd5b81356103ee6103e9826105af565b610582565b9150808252602083016020830185838301111561040a57600080fd5b61041583828461060e565b50505092915050565b60008135905061042d81610661565b92915050565b60006020828403121561044557600080fd5b600082013567ffffffffffffffff81111561045f57600080fd5b61046b848285016103ca565b91505092915050565b60006020828403121561048657600080fd5b60006104948482850161041e565b91505092915050565b60006104a8826105db565b6104b281856105e6565b93506104c281856020860161061d565b6104cb81610650565b840191505092915050565b60006104e36018836105e6565b91507f4d6f76696520616c7265616479206578697473747321212100000000000000006000830152602082019050919050565b61051f81610601565b82525050565b6000602082019050818103600083015261053f818461049d565b905092915050565b60006020820190508181036000830152610560816104d6565b9050919050565b600060208201905061057c6000830184610516565b92915050565b6000604051905081810181811067ffffffffffffffff821117156105a557600080fd5b8060405250919050565b600067ffffffffffffffff8211156105c657600080fd5b601f19601f8301169050602081019050919050565b600081519050919050565b600082825260208201905092915050565b6000819050919050565b600060ff82169050919050565b82818337600083830152505050565b60005b8381101561063b578082015181840152602081019050610620565b8381111561064a576000848401525b50505050565b6000601f19601f8301169050919050565b61066a816105f7565b811461067557600080fd5b5056fea265627a7a7230582036567c1ecdb08a02499c1a6f23c3544e526cab652b8bbe36aebaf6758cd850236c6578706572696d656e74616cf50037",
  "source": "// SPDX-License-Identifier: MIT\r\npragma solidity >=0.4.22 <0.8.0;\r\n\r\npragma experimental ABIEncoderV2;\r\n\r\ncontract Rating {\r\n    string[] public moviesList; // [\"Tenant\", \"Mulan\"] + \"Sonic the Hedgehog\"\r\n    \r\n    mapping (bytes32 => uint8) private ratings;\r\n    \r\n    mapping (bytes32 => bool) private movies;\r\n    \r\n\r\n    constructor(string[] memory _moviesList) public {\r\n       moviesList = _moviesList; \r\n    }\r\n\r\n    /**\r\n      * @dev Adds new movie to the moviesList.\r\n      * @param movieName Name of the movie \r\n      * \r\n      * Notes:\r\n      * - Need to check whether movie already exists before adding to the list\r\n      */ \r\n    function addNewMovie(string memory movieName) public {\r\n        bytes32 movieNameInBytes32 = stringToBytes32(movieName);\r\n        require(!movies[movieNameInBytes32], \"Movie already exitsts!!!\");\r\n        moviesList.push(movieName);\r\n        movies[movieNameInBytes32] = true;\r\n    }\r\n    \r\n    /** \r\n     * @dev Get total votes.\r\n     * @param movieName Name of the movie\r\n     * @return The total ratings a movie has received so far\r\n     * Notes: \r\n     * - You need to convert movieName from string to bytes32\r\n     */\r\n    function getTotalVotes(string memory movieName) public view returns (uint8) {\r\n        return ratings[stringToBytes32(movieName)];\r\n    }\r\n\r\n    /** \r\n     * @dev Vote for a movie.\r\n     * @param movieName Name of the movie\r\n     * Note: \r\n     * - You need to convert movieName from string to bytes32\r\n     */\r\n    function vote(string memory movieName) public {\r\n        ratings[stringToBytes32(movieName)] += 1;\r\n    }\r\n  \r\n    /** \r\n     * @dev Convert string to bytes32.\r\n     * @param source String source\r\n     * @return bytes32\r\n     * Notes: \r\n     * - You need to convert movieName from string to bytes32\r\n     */\r\n    function stringToBytes32(string memory source) private pure returns (bytes32 result) {\r\n        bytes memory tempEmptyStringTest = bytes(source);\r\n        if (tempEmptyStringTest.length == 0) {\r\n            return 0x0;\r\n        }\r\n    \r\n        assembly {\r\n            result := mload(add(source, 32))\r\n        }\r\n    }\r\n}",
  "sourcePath": "C:/Users/phamc5/Desktop/Fall 2020/Blockchain/movieRatingApp/rating/contracts/Rating.sol",
  "compiler": {
    "name": "solc",
    "version": "0.5.8+commit.23d335f2.Emscripten.clang"
  },
  "schemaVersion": "3.0.11",
  "updatedAt": "2020-10-27T18:21:42.203Z",
  "devdoc": {
    "methods": {
      "addNewMovie(string)": {
        "details": "Adds new movie to the moviesList.\r",
        "params": {
          "movieName": "Name of the movie \r \r Notes:\r - Need to check whether movie already exists before adding to the list\r"
        }
      },
      "getTotalVotes(string)": {
        "details": "Get total votes.\r",
        "params": {
          "movieName": "Name of the movie\r"
        },
        "return": "The total ratings a movie has received so far\r Notes: \r - You need to convert movieName from string to bytes32\r"
      },
      "vote(string)": {
        "details": "Vote for a movie.\r",
        "params": {
          "movieName": "Name of the movie\r Note: \r - You need to convert movieName from string to bytes32\r"
        }
      }
    }
  },
  "userdoc": {
    "methods": {}
  }
}